:020000040000FA
:0400000000004A288A
:040004000034003490
:08000800FD000308FE000A08D8
:10001000FF007F088A007E088300FD0E7D0E090028
:10002000C830A2000730A100FF30A000A00B1628A6
:10003000A10B1428051823202020A20B1228080049
:100040000230850008000130850008008316031384
:1000500006309F003C30850008008316031386019C
:10006000831203138601080082073F3406345B3491
:100070004F3466346D347D3407347F346F34093047
:100080000605A600261C462048200800A50A0800F0
:0E009000A40A080026202D2010203F204C2816
:02400E00313F40
:00000001FF
