:020000040000FA
:0400000000004F2885
:040004000034003490
:08000800FD000308FE000A08D8
:10001000FF007F088A007E088300FD0E7D0E090028
:100020000530A400FF30A300FF30A200A20B162869
:10003000A30B1428A40B122808000F30A5002930A8
:10004000A600A50B2128A60B212808008312031364
:10005000B1309F008316031380309F008316031373
:10006000FF3085001D200800831203131F151F1980
:100070003728831203131E08831203138700831685
:1000800003131E088312031386000800831603134C
:100090008601870183120313860187010800462029
:0800A00026201D203420512808
:00000001FF
