:020000040000FA
:04000000000047288D
:040004000034003490
:08000800FD000308FE000A08D8
:10001000FF00063081008B1816200B191A207F086C
:100020008A007E088300FD0E7D0E09008B102030B3
:10003000870008000B11A00B08000130870608009C
:1000400082073F3406345B344F3466346D347D347C
:1000500007347F346F348316031303308100831217
:1000600003130630810008008B160B168B1708004F
:1000700083160313013086008312031386010800E0
:100080008316031387018312031387010800FA30D4
:10009000A0002B203420382040200310823087001D
:0200A0005028E6
:02400E00313F40
:00000001FF
