:020000040000FA
:1000000000003028AA30A100AA30A000A00B0628CA
:10001000A10B0428080082073F3406345B344F34B8
:1000200066346D347D3407347F346F3483120313A8
:1000300085018316031306309F003C3085000800BD
:100040008316031386018312031386010800093007
:10005000A3000930A5000930A4000A30A60008005A
:10006000162020200930A3000930A5000930A40083
:100070000A30A60001308500A30323080B20860068
:1000800002200230850024080B2086000220A50BE8
:100090003A200930A3000930A50002308500A403EE
:1000A00024080B2086000220A60B3A200930A3006A
:0E00B0000930A5000930A4000A30A6003A204D
:0200BE0000340C
:0200C00000340A
:00000001FF
