:020000040000FA
:1000000000001C28FF30A100FF30A000A00B062834
:10001000A10B0428080082073F345B3466347D342A
:100020007F3482073F3406345B344F3466346D349A
:100030007D3407347F346F348312031385018316B4
:10004000031306309F003C3085008316031386019E
:100050008312031386010030A3000430A500003092
:10006000A4000A30A60009308500A30A23080B204B
:10007000860002200A308500240811208600022014
:10008000A50B33200030A3000430A5000630850006
:10009000A40A2408112086000220A60B3320003079
:1000A000A3000430A5000030A4000A30A6003320CD
:0400B00000340034E4
:00000001FF
