:020000040000FA
:0400000000002E28A6
:040004000034003490
:08000800FD000308FE000A08D8
:10001000FF007F088A007E088300FD0E7D0E090028
:100020000330A200FF30A100FF30A000A00B162873
:10003000A10B1428A20B122808002318222820281C
:10004000860D0800860C0800861F08000130A300FA
:100050000800061C08000030A300080003108312EB
:1000600003138601831603138601831203130030E2
:10007000A3000130860010201D20242029203B28C9
:02400E00313F40
:00000001FF
