:020000040000FA
:04000000000037289D
:040004000034003490
:08000800FD000308FE000A08D8
:10001000FF000B1106308100A10B0F2817208B1752
:100020007F088A007E088300FD0E7D0E0900831282
:100030000313FA30A100221C2428013086001F304F
:1000400087000230A20008007F3086000130870060
:100050000130A200080083160313033081008312CD
:1000600003130630810008008B168B17080001303F
:10007000A200FA30A1002B2034208316031386013E
:0C008000870183120313860187014528C5
:00000001FF
