:020000040000FA
:0400000000004C2888
:040004000034003490
:08000800FD000308FE000A08D8
:10001000FF000B11A00B0F2824201430A0008B1719
:100020007F088A007E088300FD0E7D0E0900831282
:10003000031389309F008316031380309F008316BB
:100040000313FF3085000800831203131F151F19C7
:100050002728831203131E088312031387008316B5
:1000600003131E088312031386000800831603136C
:100070008601870183120313860187010800831616
:100080000313013081008312031306308100143002
:10009000A0008B168B17080036203F2017204F2812
:00000001FF
