:020000040000FA
:10000000000043285030A0001030A100FF30A200B3
:10001000A20B0828A10B0628162085001B20A7008C
:100020001E2025208600A00B04280800831203133D
:1000300005180234013405182534263427182128E0
:100040002608271C24282508080082073F34063488
:100050005B344F3466346D347D3407347F346F3411
:100060008316031306309F003C3085008312031370
:100070008501023085000800831603138601831270
:100080000313860108000A30A8000A30A9003020B6
:100090003C200220A50AA80B4928A60AA5010A307F
:0C00A000A800A90B49280A30A900492833
:0400AC0000340034E8
:00000001FF
