:020000040000FA
:10000000000020280430A200FF30A100FF30A00033
:10001000A00B0828A10B0628A20B042808008207C1
:100020003F345B3466347D347F3482073F3406349A
:100030005B344F3466346D347D3407347F346F3431
:100040008312031385018316031306309F003C308F
:100050008500831603138601831203138601003083
:10006000A3000430A5000030A4000A30A60001302F
:100070008500A30A23080F20860002200230850095
:100080002408152086000220A50B37200030A3008D
:100090000430A50002308500A40A2408152086003B
:1000A0000220A60B37200030A3000430A50000304A
:0800B000A4000A30A60037206D
:0400B80000340034DC
:00000001FF
