:020000040000FA
:0400000000003028A4
:040004000034003490
:08000800FD000308FE000A08D8
:10001000FF007F088A007E088300FD0E7D0E090028
:10002000AA30A300A30B122808008316031306307E
:100030009F003C308500080083160313860183125D
:100040000313860183120313080082073F3406342A
:100050005B344F3466346D347D3407347F346F3411
:1000600015201C2002308500083025208600102035
:0E00700001308500093025208600102032283E
:02400E00313F40
:00000001FF
