:020000040000FA
:1000000000001A28CC30A000A00B042808008207AA
:100010003F3406345B344F3466346D347D340734FA
:100020007F346F3405308500A40A24080720860039
:100030000220080083120313850183160313063080
:100040009F00043085008316031386018312031377
:1000500086010030A4000030A5000530850024088A
:10006000072086000220063085002508072086002C
:1000700002202D2005191220022002200220022039
:020080003A281C
:040082000034003412
:00000001FF
