:020000040000FA
:040000000000422892
:040004000034003490
:08000800FD000308FE000A08D8
:10001000FF000B1106308100A50B0F2817208B174E
:100020007E0883007F088A00FD0E7D0E0900831282
:100030000313A230A500061C1E28212801308600CB
:1000400008000230860008000800831603130330FE
:100050008100831203130630810008008B168B1772
:1000600008008312031385018316031306309F00D3
:1000700009308500080083160313860183120313D9
:1000800086010800A230A50025202E2031203B202B
:020090004828FE
:00000001FF
