:020000040000FA
:040000000000632871
:040004000034003490
:08000800FD000308FE000A08D8
:10001000FF007F088A007E088300FD0E7D0E090028
:100020005530A1005530A000A00B1428A10B1228B8
:1000300008008312031385018316031306309F0003
:100040003C308500080083160313860183120313D6
:100050008601080082073F3406345B344F3466342F
:100060006D347D3407347F346F340030A3000930A1
:1000700025300030A4000A30A60001308500A30A14
:1000800023082A208600102002308500240A2A2016
:1000900086001020A50B3D200030A3000930A500EC
:1000A00002308500A40A24082A2086001020A60B0E
:1000B0003D200030A300093025300030A4000A3074
:0E00C000A6003D2008001920232035206528C9
:02400E00313F40
:00000001FF
