:020000040000FA
:0400000000002428B0
:040004000034003490
:08000800FD000308FE000A08D8
:10001000FF007F088A007E088300FD0E7D0E090028
:100020005530A1007730A000A00B1428A10B122896
:10003000080082073F3406345B344F3466346D3435
:100040007D3407347F346F348316031306309F00EA
:100050003C30850083160313860183120313860147
:100060000030A3000930A5000030A4000A30A6002B
:1000700001308500A30A23081920860010200230D1
:1000800085002408192086001020A50B3820003098
:10009000A3000930A50002308500A40A2408192015
:1000A00086001020A60B38200030A3000930A500E0
:0A00B0000030A4000A30A60038203A
:02400E00313F40
:00000001FF
