:020000040000FA
:0400000000002F28A5
:040004000034003490
:08000800FD000308FE000A08D8
:10001000FF007F088A007E088300FD0E7D0E090028
:100020000530A200FF30A100FF30A000A00B162871
:10003000A10B1428A20B1228080083160313063004
:100040009F003F30850083120313080083120313BF
:1000500086018316031386018312031308001D20F3
:100060002620051C3E28851C4128051D4428851D89
:100070004728051E4A28851E4D2831280130860054
:10008000502802308600502804308600502808305E
:1000900086005028103086005028203086005028D6
:0200A000312805
:02400E00313F40
:00000001FF
