:020000040000FA
:04000000000056287E
:040004000034003490
:08000800FD000308FE000A08D8
:10001000FF008B1825280B118B1006308100A00BD8
:1000200012282C208B177E0883007F088A00FD0E83
:100030007D0E090082073F3406345B344F3466344A
:100040006D347D3407347F346F34013085002108EE
:100050001A208700A10A080008000B168B1701134D
:10006000080083160313011481148312031306304E
:10007000810008008B168B170800831603130630C7
:100080009F003C308500831203138501080083160E
:1000900003130130860083120313860108008316C0
:1000A0000313870183120313870108000130A000A6
:1000B0000030A1000030A20031203A202D203D2048
:0600C00047204F206228DA
:02400E00313F40
:00000001FF
