:020000040000FA
:0400000000003F2895
:040004000034003490
:08000800FD000308FE000A08D8
:10001000FF000B1106308100A40B0F2822208B1744
:100020007F088A007E088300FD0E7D0E090082078E
:100030003F3406345B344F3466346D347D340734DA
:100040007F346F3483120313FA30A400023085002A
:10005000033017208600013085000130172086000C
:100060000800831603130330810083120313063044
:1000700081000800831203138B168B170800FA30D7
:10008000A40031203A208312031385018316031341
:1000900006309F003C3085008316031386018312CF
:0600A00003138601522843
:00000001FF
